{
  "address": "0x3F7ed9D6406ceCD131454eDD3919543e17E129d5",
  "abi": [
    {
      "inputs": [
        {
          "internalType": "address",
          "name": "priceFeedAddress",
          "type": "address"
        }
      ],
      "stateMutability": "nonpayable",
      "type": "constructor"
    },
    {
      "inputs": [],
      "name": "FundMe__NotOwner",
      "type": "error"
    },
    {
      "stateMutability": "payable",
      "type": "fallback"
    },
    {
      "inputs": [],
      "name": "MINIMUM_USD",
      "outputs": [
        {
          "internalType": "uint256",
          "name": "",
          "type": "uint256"
        }
      ],
      "stateMutability": "view",
      "type": "function"
    },
    {
      "inputs": [
        {
          "internalType": "address",
          "name": "",
          "type": "address"
        }
      ],
      "name": "addressToAmountFunded",
      "outputs": [
        {
          "internalType": "uint256",
          "name": "",
          "type": "uint256"
        }
      ],
      "stateMutability": "view",
      "type": "function"
    },
    {
      "inputs": [],
      "name": "fund",
      "outputs": [],
      "stateMutability": "payable",
      "type": "function"
    },
    {
      "inputs": [
        {
          "internalType": "uint256",
          "name": "",
          "type": "uint256"
        }
      ],
      "name": "funders",
      "outputs": [
        {
          "internalType": "address",
          "name": "",
          "type": "address"
        }
      ],
      "stateMutability": "view",
      "type": "function"
    },
    {
      "inputs": [],
      "name": "getVersion",
      "outputs": [
        {
          "internalType": "uint256",
          "name": "",
          "type": "uint256"
        }
      ],
      "stateMutability": "view",
      "type": "function"
    },
    {
      "inputs": [],
      "name": "i_owner",
      "outputs": [
        {
          "internalType": "address",
          "name": "",
          "type": "address"
        }
      ],
      "stateMutability": "view",
      "type": "function"
    },
    {
      "inputs": [],
      "name": "priceFeed",
      "outputs": [
        {
          "internalType": "contract AggregatorV3Interface",
          "name": "",
          "type": "address"
        }
      ],
      "stateMutability": "view",
      "type": "function"
    },
    {
      "inputs": [],
      "name": "withdraw",
      "outputs": [],
      "stateMutability": "nonpayable",
      "type": "function"
    },
    {
      "stateMutability": "payable",
      "type": "receive"
    }
  ],
  "transactionHash": "0xc3cde47ca5b96b03665ed5092df9ec24aa72dca376111f8c9eed0c43b9b2ff52",
  "args": [
    "0x694AA1769357215DE4FAC081bf1f309aDC325306"
  ],
  "numDeployments": 1,
  "solcInputHash": "68de2d0929fc173b852298efd1166f3c",
  "bytecode": "0x60c06040523480156200001157600080fd5b506040516200110a3803806200110a833981810160405281019062000037919062000116565b3373ffffffffffffffffffffffffffffffffffffffff1660808173ffffffffffffffffffffffffffffffffffffffff1660601b815250508073ffffffffffffffffffffffffffffffffffffffff1660a08173ffffffffffffffffffffffffffffffffffffffff1660601b815250505062000148565b600080fd5b600073ffffffffffffffffffffffffffffffffffffffff82169050919050565b6000620000de82620000b1565b9050919050565b620000f081620000d1565b8114620000fc57600080fd5b50565b6000815190506200011081620000e5565b92915050565b6000602082840312156200012f576200012e620000ac565b5b60006200013f84828501620000ff565b91505092915050565b60805160601c60a05160601c610f8162000189600039600081816101ed0152818161031a01526106210152600081816103bd01526106450152610f816000f3fe60806040526004361061007f5760003560e01c8063741bef1a1161004e578063741bef1a14610142578063b60d42881461016d578063dba6335f14610177578063dc0d3dff146101a25761008e565b80630d8e6e2c146100985780633ccfd60b146100c35780633e47d6f3146100da5780636b69a592146101175761008e565b3661008e5761008c6101df565b005b6100966101df565b005b3480156100a457600080fd5b506100ad610316565b6040516100ba9190610842565b60405180910390f35b3480156100cf57600080fd5b506100d86103bb565b005b3480156100e657600080fd5b5061010160048036038101906100fc91906108c0565b6105fb565b60405161010e9190610842565b60405180910390f35b34801561012357600080fd5b5061012c610613565b6040516101399190610842565b60405180910390f35b34801561014e57600080fd5b5061015761061f565b604051610164919061094c565b60405180910390f35b6101756101df565b005b34801561018357600080fd5b5061018c610643565b6040516101999190610976565b60405180910390f35b3480156101ae57600080fd5b506101c960048036038101906101c491906109bd565b610667565b6040516101d69190610976565b60405180910390f35b674563918244f4000061021b7f0000000000000000000000000000000000000000000000000000000000000000346106a690919063ffffffff16565b101561025c576040517f08c379a000000000000000000000000000000000000000000000000000000000815260040161025390610a47565b60405180910390fd5b346000803373ffffffffffffffffffffffffffffffffffffffff1673ffffffffffffffffffffffffffffffffffffffff16815260200190815260200160002060008282546102aa9190610a96565b925050819055506001339080600181540180825580915050600190039060005260206000200160009091909190916101000a81548173ffffffffffffffffffffffffffffffffffffffff021916908373ffffffffffffffffffffffffffffffffffffffff160217905550565b60007f000000000000000000000000000000000000000000000000000000000000000073ffffffffffffffffffffffffffffffffffffffff166354fd4d506040518163ffffffff1660e01b815260040160206040518083038186803b15801561037e57600080fd5b505afa158015610392573d6000803e3d6000fd5b505050506040513d601f19601f820116820180604052508101906103b69190610b01565b905090565b7f000000000000000000000000000000000000000000000000000000000000000073ffffffffffffffffffffffffffffffffffffffff163373ffffffffffffffffffffffffffffffffffffffff1614610440576040517f579610db00000000000000000000000000000000000000000000000000000000815260040160405180910390fd5b60005b6001805490508110156104eb5760006001828154811061046657610465610b2e565b5b9060005260206000200160009054906101000a900473ffffffffffffffffffffffffffffffffffffffff16905060008060008373ffffffffffffffffffffffffffffffffffffffff1673ffffffffffffffffffffffffffffffffffffffff168152602001908152602001600020819055505080806104e390610b5d565b915050610443565b50600067ffffffffffffffff81111561050757610506610ba6565b5b6040519080825280602002602001820160405280156105355781602001602082028036833780820191505090505b506001908051906020019061054b929190610782565b5060003373ffffffffffffffffffffffffffffffffffffffff164760405161057290610c06565b60006040518083038185875af1925050503d80600081146105af576040519150601f19603f3d011682016040523d82523d6000602084013e6105b4565b606091505b50509050806105f8576040517f08c379a00000000000000000000000000000000000000000000000000000000081526004016105ef90610c67565b60405180910390fd5b50565b60006020528060005260406000206000915090505481565b674563918244f4000081565b7f000000000000000000000000000000000000000000000000000000000000000081565b7f000000000000000000000000000000000000000000000000000000000000000081565b6001818154811061067757600080fd5b906000526020600020016000915054906101000a900473ffffffffffffffffffffffffffffffffffffffff1681565b6000806106b2836106e2565b90506000670de0b6b3a764000085836106cb9190610c87565b6106d59190610d10565b9050809250505092915050565b6000808273ffffffffffffffffffffffffffffffffffffffff1663feaf968c6040518163ffffffff1660e01b815260040160a06040518083038186803b15801561072b57600080fd5b505afa15801561073f573d6000803e3d6000fd5b505050506040513d601f19601f820116820180604052508101906107639190610db9565b5050509150506402540be4008161077a9190610e34565b915050919050565b8280548282559060005260206000209081019282156107fb579160200282015b828111156107fa5782518260006101000a81548173ffffffffffffffffffffffffffffffffffffffff021916908373ffffffffffffffffffffffffffffffffffffffff160217905550916020019190600101906107a2565b5b509050610808919061080c565b5090565b5b8082111561082557600081600090555060010161080d565b5090565b6000819050919050565b61083c81610829565b82525050565b60006020820190506108576000830184610833565b92915050565b600080fd5b600073ffffffffffffffffffffffffffffffffffffffff82169050919050565b600061088d82610862565b9050919050565b61089d81610882565b81146108a857600080fd5b50565b6000813590506108ba81610894565b92915050565b6000602082840312156108d6576108d561085d565b5b60006108e4848285016108ab565b91505092915050565b6000819050919050565b600061091261090d61090884610862565b6108ed565b610862565b9050919050565b6000610924826108f7565b9050919050565b600061093682610919565b9050919050565b6109468161092b565b82525050565b6000602082019050610961600083018461093d565b92915050565b61097081610882565b82525050565b600060208201905061098b6000830184610967565b92915050565b61099a81610829565b81146109a557600080fd5b50565b6000813590506109b781610991565b92915050565b6000602082840312156109d3576109d261085d565b5b60006109e1848285016109a8565b91505092915050565b600082825260208201905092915050565b7f596f75206e65656420746f207370656e64206d6f726520455448210000000000600082015250565b6000610a31601b836109ea565b9150610a3c826109fb565b602082019050919050565b60006020820190508181036000830152610a6081610a24565b9050919050565b7f4e487b7100000000000000000000000000000000000000000000000000000000600052601160045260246000fd5b6000610aa182610829565b9150610aac83610829565b9250827fffffffffffffffffffffffffffffffffffffffffffffffffffffffffffffffff03821115610ae157610ae0610a67565b5b828201905092915050565b600081519050610afb81610991565b92915050565b600060208284031215610b1757610b1661085d565b5b6000610b2584828501610aec565b91505092915050565b7f4e487b7100000000000000000000000000000000000000000000000000000000600052603260045260246000fd5b6000610b6882610829565b91507fffffffffffffffffffffffffffffffffffffffffffffffffffffffffffffffff821415610b9b57610b9a610a67565b5b600182019050919050565b7f4e487b7100000000000000000000000000000000000000000000000000000000600052604160045260246000fd5b600081905092915050565b50565b6000610bf0600083610bd5565b9150610bfb82610be0565b600082019050919050565b6000610c1182610be3565b9150819050919050565b7f43616c6c206661696c6564000000000000000000000000000000000000000000600082015250565b6000610c51600b836109ea565b9150610c5c82610c1b565b602082019050919050565b60006020820190508181036000830152610c8081610c44565b9050919050565b6000610c9282610829565b9150610c9d83610829565b9250817fffffffffffffffffffffffffffffffffffffffffffffffffffffffffffffffff0483118215151615610cd657610cd5610a67565b5b828202905092915050565b7f4e487b7100000000000000000000000000000000000000000000000000000000600052601260045260246000fd5b6000610d1b82610829565b9150610d2683610829565b925082610d3657610d35610ce1565b5b828204905092915050565b600069ffffffffffffffffffff82169050919050565b610d6081610d41565b8114610d6b57600080fd5b50565b600081519050610d7d81610d57565b92915050565b6000819050919050565b610d9681610d83565b8114610da157600080fd5b50565b600081519050610db381610d8d565b92915050565b600080600080600060a08688031215610dd557610dd461085d565b5b6000610de388828901610d6e565b9550506020610df488828901610da4565b9450506040610e0588828901610aec565b9350506060610e1688828901610aec565b9250506080610e2788828901610d6e565b9150509295509295909350565b6000610e3f82610d83565b9150610e4a83610d83565b9250827f7fffffffffffffffffffffffffffffffffffffffffffffffffffffffffffffff0482116000841360008413161615610e8957610e88610a67565b5b817f80000000000000000000000000000000000000000000000000000000000000000583126000841260008413161615610ec657610ec5610a67565b5b827f80000000000000000000000000000000000000000000000000000000000000000582126000841360008412161615610f0357610f02610a67565b5b827f7fffffffffffffffffffffffffffffffffffffffffffffffffffffffffffffff0582126000841260008412161615610f4057610f3f610a67565b5b82820290509291505056fea26469706673582212201e143344d922be2455e1689765825f453727cdfb74b6079da4425bd381255b5864736f6c63430008080033",
  "devdoc": {
    "author": "nate",
    "details": "This implements price feeds as our library",
    "kind": "dev",
    "methods": {
      "fund()": {
        "details": "This implements price feeds as our library"
      }
    },
    "title": "A contract for crowd funding",
    "version": 1
  },
  "userdoc": {
    "kind": "user",
    "methods": {
      "fund()": {
        "notice": "This function funds this contract"
      }
    },
    "notice": "This contract is to demo a sample funding contract",
    "version": 1
  },
  "storageLayout": {
    "storage": [
      {
        "astId": 59,
        "contract": "contracts/FundMe.sol:FundMe",
        "label": "addressToAmountFunded",
        "offset": 0,
        "slot": "0",
        "type": "t_mapping(t_address,t_uint256)"
      },
      {
        "astId": 62,
        "contract": "contracts/FundMe.sol:FundMe",
        "label": "funders",
        "offset": 0,
        "slot": "1",
        "type": "t_array(t_address)dyn_storage"
      }
    ],
    "types": {
      "t_address": {
        "encoding": "inplace",
        "label": "address",
        "numberOfBytes": "20"
      },
      "t_array(t_address)dyn_storage": {
        "base": "t_address",
        "encoding": "dynamic_array",
        "label": "address[]",
        "numberOfBytes": "32"
      },
      "t_mapping(t_address,t_uint256)": {
        "encoding": "mapping",
        "key": "t_address",
        "label": "mapping(address => uint256)",
        "numberOfBytes": "32",
        "value": "t_uint256"
      },
      "t_uint256": {
        "encoding": "inplace",
        "label": "uint256",
        "numberOfBytes": "32"
      }
    }
  }
}